{
  "address": "0xa22eDC4bCAA92F79A955bF53AF5145AF7774b35F",
  "abi": [
    {
      "inputs": [
        {
          "internalType": "uint256",
          "name": "_lockTime",
          "type": "uint256"
        },
        {
          "internalType": "address",
          "name": "dataFeedAddr",
          "type": "address"
        }
      ],
      "stateMutability": "nonpayable",
      "type": "constructor"
    },
    {
      "inputs": [],
      "name": "dataFeed",
      "outputs": [
        {
          "internalType": "contract AggregatorV3Interface",
          "name": "",
          "type": "address"
        }
      ],
      "stateMutability": "view",
      "type": "function"
    },
    {
      "inputs": [],
      "name": "fund",
      "outputs": [],
      "stateMutability": "payable",
      "type": "function"
    },
    {
      "inputs": [
        {
          "internalType": "address",
          "name": "",
          "type": "address"
        }
      ],
      "name": "fundersToAmount",
      "outputs": [
        {
          "internalType": "uint256",
          "name": "",
          "type": "uint256"
        }
      ],
      "stateMutability": "view",
      "type": "function"
    },
    {
      "inputs": [],
      "name": "getChainlinkDataFeedLatestAnswer",
      "outputs": [
        {
          "internalType": "int256",
          "name": "",
          "type": "int256"
        }
      ],
      "stateMutability": "view",
      "type": "function"
    },
    {
      "inputs": [],
      "name": "getFund",
      "outputs": [],
      "stateMutability": "nonpayable",
      "type": "function"
    },
    {
      "inputs": [],
      "name": "getFundSuccess",
      "outputs": [
        {
          "internalType": "bool",
          "name": "",
          "type": "bool"
        }
      ],
      "stateMutability": "view",
      "type": "function"
    },
    {
      "inputs": [],
      "name": "owner",
      "outputs": [
        {
          "internalType": "address",
          "name": "",
          "type": "address"
        }
      ],
      "stateMutability": "view",
      "type": "function"
    },
    {
      "inputs": [],
      "name": "refund",
      "outputs": [],
      "stateMutability": "nonpayable",
      "type": "function"
    },
    {
      "inputs": [
        {
          "internalType": "address",
          "name": "_erc20Addr",
          "type": "address"
        }
      ],
      "name": "setErc20Addr",
      "outputs": [],
      "stateMutability": "nonpayable",
      "type": "function"
    },
    {
      "inputs": [
        {
          "internalType": "address",
          "name": "funder",
          "type": "address"
        },
        {
          "internalType": "uint256",
          "name": "amountToUpdate",
          "type": "uint256"
        }
      ],
      "name": "setFunderToAmount",
      "outputs": [],
      "stateMutability": "nonpayable",
      "type": "function"
    },
    {
      "inputs": [
        {
          "internalType": "address",
          "name": "newOwner",
          "type": "address"
        }
      ],
      "name": "transferOwnerShip",
      "outputs": [],
      "stateMutability": "nonpayable",
      "type": "function"
    }
  ],
  "transactionHash": "0x7528daf8cc2527db142a1e9c822f3d16348f19ac6c11f971e98ad372785a215e",
  "args": [
    180,
    "0x694AA1769357215DE4FAC081bf1f309aDC325306"
  ],
  "numDeployments": 1,
  "solcInputHash": "ac273267f2463d3565c78e28f7fe7873",
  "bytecode": "0x60806040526000600560146101000a81548160ff02191690831515021790555034801561002b57600080fd5b50604051611697380380611697833981810160405281019061004d919061017d565b80600160006101000a81548173ffffffffffffffffffffffffffffffffffffffff021916908373ffffffffffffffffffffffffffffffffffffffff16021790555033600260006101000a81548173ffffffffffffffffffffffffffffffffffffffff021916908373ffffffffffffffffffffffffffffffffffffffff160217905550426003819055508160048190555050506101bd565b600080fd5b6000819050919050565b6100fc816100e9565b811461010757600080fd5b50565b600081519050610119816100f3565b92915050565b600073ffffffffffffffffffffffffffffffffffffffff82169050919050565b600061014a8261011f565b9050919050565b61015a8161013f565b811461016557600080fd5b50565b60008151905061017781610151565b92915050565b60008060408385031215610194576101936100e4565b5b60006101a28582860161010a565b92505060206101b385828601610168565b9150509250929050565b6114cb806101cc6000396000f3fe60806040526004361061009c5760003560e01c80639e42ff90116100645780639e42ff901461014c5780639f883a0514610177578063b60d4288146101b4578063bea4dfb5146101be578063d39cf006146101e9578063da4658e0146102125761009c565b806313ffff01146100a1578063590e1ae3146100ca5780638863dd1a146100e15780638da5cb5b1461010a5780638edd6eb614610135575b600080fd5b3480156100ad57600080fd5b506100c860048036038101906100c39190610c48565b61023d565b005b3480156100d657600080fd5b506100df610311565b005b3480156100ed57600080fd5b5061010860048036038101906101039190610c48565b6105c2565b005b34801561011657600080fd5b5061011f610696565b60405161012c9190610c84565b60405180910390f35b34801561014157600080fd5b5061014a6106bc565b005b34801561015857600080fd5b50610161610902565b60405161016e9190610cfe565b60405180910390f35b34801561018357600080fd5b5061019e60048036038101906101999190610c48565b610928565b6040516101ab9190610d32565b60405180910390f35b6101bc610940565b005b3480156101ca57600080fd5b506101d3610a2a565b6040516101e09190610d66565b60405180910390f35b3480156101f557600080fd5b50610210600480360381019061020b9190610dad565b610acb565b005b34801561021e57600080fd5b50610227610ba2565b6040516102349190610e08565b60405180910390f35b600260009054906101000a900473ffffffffffffffffffffffffffffffffffffffff1673ffffffffffffffffffffffffffffffffffffffff163373ffffffffffffffffffffffffffffffffffffffff16146102cd576040517f08c379a00000000000000000000000000000000000000000000000000000000081526004016102c490610ea6565b60405180910390fd5b80600560006101000a81548173ffffffffffffffffffffffffffffffffffffffff021916908373ffffffffffffffffffffffffffffffffffffffff16021790555050565b6004546003546103219190610ef5565b421015610363576040517f08c379a000000000000000000000000000000000000000000000000000000000815260040161035a90610f75565b60405180910390fd5b600260009054906101000a900473ffffffffffffffffffffffffffffffffffffffff1673ffffffffffffffffffffffffffffffffffffffff163373ffffffffffffffffffffffffffffffffffffffff16146103f3576040517f08c379a00000000000000000000000000000000000000000000000000000000081526004016103ea90610ea6565b60405180910390fd5b683635c9adc5dea0000061040647610bb5565b10610446576040517f08c379a000000000000000000000000000000000000000000000000000000000815260040161043d90610fe1565b60405180910390fd5b60008060003373ffffffffffffffffffffffffffffffffffffffff1673ffffffffffffffffffffffffffffffffffffffff168152602001908152602001600020549050600081036104cc576040517f08c379a00000000000000000000000000000000000000000000000000000000081526004016104c39061104d565b60405180910390fd5b60003373ffffffffffffffffffffffffffffffffffffffff16826040516104f29061109e565b60006040518083038185875af1925050503d806000811461052f576040519150601f19603f3d011682016040523d82523d6000602084013e610534565b606091505b5050809150508061057a576040517f08c379a0000000000000000000000000000000000000000000000000000000008152600401610571906110ff565b60405180910390fd5b60008060003373ffffffffffffffffffffffffffffffffffffffff1673ffffffffffffffffffffffffffffffffffffffff168152602001908152602001600020819055505050565b600260009054906101000a900473ffffffffffffffffffffffffffffffffffffffff1673ffffffffffffffffffffffffffffffffffffffff163373ffffffffffffffffffffffffffffffffffffffff1614610652576040517f08c379a000000000000000000000000000000000000000000000000000000000815260040161064990610ea6565b60405180910390fd5b80600260006101000a81548173ffffffffffffffffffffffffffffffffffffffff021916908373ffffffffffffffffffffffffffffffffffffffff16021790555050565b600260009054906101000a900473ffffffffffffffffffffffffffffffffffffffff1681565b6004546003546106cc9190610ef5565b42101561070e576040517f08c379a000000000000000000000000000000000000000000000000000000000815260040161070590610f75565b60405180910390fd5b600260009054906101000a900473ffffffffffffffffffffffffffffffffffffffff1673ffffffffffffffffffffffffffffffffffffffff163373ffffffffffffffffffffffffffffffffffffffff161461079e576040517f08c379a000000000000000000000000000000000000000000000000000000000815260040161079590610ea6565b60405180910390fd5b683635c9adc5dea000006107b147610bb5565b10156107f2576040517f08c379a00000000000000000000000000000000000000000000000000000000081526004016107e99061116b565b60405180910390fd5b60003373ffffffffffffffffffffffffffffffffffffffff16476040516108189061109e565b60006040518083038185875af1925050503d8060008114610855576040519150601f19603f3d011682016040523d82523d6000602084013e61085a565b606091505b505080915050806108a0576040517f08c379a0000000000000000000000000000000000000000000000000000000008152600401610897906110ff565b60405180910390fd5b60008060003373ffffffffffffffffffffffffffffffffffffffff1673ffffffffffffffffffffffffffffffffffffffff168152602001908152602001600020819055506001600560146101000a81548160ff02191690831515021790555050565b600160009054906101000a900473ffffffffffffffffffffffffffffffffffffffff1681565b60006020528060005260406000206000915090505481565b68056bc75e2d6310000061095334610bb5565b1015610994576040517f08c379a000000000000000000000000000000000000000000000000000000000815260040161098b906111d7565b60405180910390fd5b6004546003546109a49190610ef5565b42106109e5576040517f08c379a00000000000000000000000000000000000000000000000000000000081526004016109dc90611243565b60405180910390fd5b346000803373ffffffffffffffffffffffffffffffffffffffff1673ffffffffffffffffffffffffffffffffffffffff16815260200190815260200160002081905550565b600080600160009054906101000a900473ffffffffffffffffffffffffffffffffffffffff1673ffffffffffffffffffffffffffffffffffffffff1663feaf968c6040518163ffffffff1660e01b815260040160a060405180830381865afa158015610a9a573d6000803e3d6000fd5b505050506040513d601f19601f82011682018060405250810190610abe91906112e6565b5050509150508091505090565b600560009054906101000a900473ffffffffffffffffffffffffffffffffffffffff1673ffffffffffffffffffffffffffffffffffffffff163373ffffffffffffffffffffffffffffffffffffffff1614610b5b576040517f08c379a0000000000000000000000000000000000000000000000000000000008152600401610b52906113d3565b60405180910390fd5b806000808473ffffffffffffffffffffffffffffffffffffffff1673ffffffffffffffffffffffffffffffffffffffff168152602001908152602001600020819055505050565b600560149054906101000a900460ff1681565b600080610bc0610a2a565b90506305f5e1008184610bd391906113f3565b610bdd9190611464565b915050919050565b600080fd5b600073ffffffffffffffffffffffffffffffffffffffff82169050919050565b6000610c1582610bea565b9050919050565b610c2581610c0a565b8114610c3057600080fd5b50565b600081359050610c4281610c1c565b92915050565b600060208284031215610c5e57610c5d610be5565b5b6000610c6c84828501610c33565b91505092915050565b610c7e81610c0a565b82525050565b6000602082019050610c996000830184610c75565b92915050565b6000819050919050565b6000610cc4610cbf610cba84610bea565b610c9f565b610bea565b9050919050565b6000610cd682610ca9565b9050919050565b6000610ce882610ccb565b9050919050565b610cf881610cdd565b82525050565b6000602082019050610d136000830184610cef565b92915050565b6000819050919050565b610d2c81610d19565b82525050565b6000602082019050610d476000830184610d23565b92915050565b6000819050919050565b610d6081610d4d565b82525050565b6000602082019050610d7b6000830184610d57565b92915050565b610d8a81610d19565b8114610d9557600080fd5b50565b600081359050610da781610d81565b92915050565b60008060408385031215610dc457610dc3610be5565b5b6000610dd285828601610c33565b9250506020610de385828601610d98565b9150509250929050565b60008115159050919050565b610e0281610ded565b82525050565b6000602082019050610e1d6000830184610df9565b92915050565b600082825260208201905092915050565b7f746869732066756e6374696f6e2063616e206f6e6c792062652063616c6c656460008201527f206279206f776e65720000000000000000000000000000000000000000000000602082015250565b6000610e90602983610e23565b9150610e9b82610e34565b604082019050919050565b60006020820190508181036000830152610ebf81610e83565b9050919050565b7f4e487b7100000000000000000000000000000000000000000000000000000000600052601160045260246000fd5b6000610f0082610d19565b9150610f0b83610d19565b9250828201905080821115610f2357610f22610ec6565b5b92915050565b7f77696e646f77206973206e6f20636c6f73656400000000000000000000000000600082015250565b6000610f5f601383610e23565b9150610f6a82610f29565b602082019050919050565b60006020820190508181036000830152610f8e81610f52565b9050919050565b7f5461726765742069732020726561636865640000000000000000000000000000600082015250565b6000610fcb601283610e23565b9150610fd682610f95565b602082019050919050565b60006020820190508181036000830152610ffa81610fbe565b9050919050565b7f7468657265206973206e6f2066756e6420666f7220796f750000000000000000600082015250565b6000611037601883610e23565b915061104282611001565b602082019050919050565b600060208201905081810360008301526110668161102a565b9050919050565b600081905092915050565b50565b600061108860008361106d565b915061109382611078565b600082019050919050565b60006110a98261107b565b9150819050919050565b7f7472616e73666572207478206661696c65640000000000000000000000000000600082015250565b60006110e9601283610e23565b91506110f4826110b3565b602082019050919050565b60006020820190508181036000830152611118816110dc565b9050919050565b7f546172676574206973206e6f7420726561636865640000000000000000000000600082015250565b6000611155601583610e23565b91506111608261111f565b602082019050919050565b6000602082019050818103600083015261118481611148565b9050919050565b7f53656e64206d6f72652045544800000000000000000000000000000000000000600082015250565b60006111c1600d83610e23565b91506111cc8261118b565b602082019050919050565b600060208201905081810360008301526111f0816111b4565b9050919050565b7f77696e646f7720697320636c6f73656400000000000000000000000000000000600082015250565b600061122d601083610e23565b9150611238826111f7565b602082019050919050565b6000602082019050818103600083015261125c81611220565b9050919050565b600069ffffffffffffffffffff82169050919050565b61128281611263565b811461128d57600080fd5b50565b60008151905061129f81611279565b92915050565b6112ae81610d4d565b81146112b957600080fd5b50565b6000815190506112cb816112a5565b92915050565b6000815190506112e081610d81565b92915050565b600080600080600060a0868803121561130257611301610be5565b5b600061131088828901611290565b9550506020611321888289016112bc565b9450506040611332888289016112d1565b9350506060611343888289016112d1565b925050608061135488828901611290565b9150509295509295909350565b7f796f7520646f206e6f742068617665207065726d697373696f6e20746f20636160008201527f6c6c20746869732066756e6374696f6e00000000000000000000000000000000602082015250565b60006113bd603083610e23565b91506113c882611361565b604082019050919050565b600060208201905081810360008301526113ec816113b0565b9050919050565b60006113fe82610d19565b915061140983610d19565b925082820261141781610d19565b9150828204841483151761142e5761142d610ec6565b5b5092915050565b7f4e487b7100000000000000000000000000000000000000000000000000000000600052601260045260246000fd5b600061146f82610d19565b915061147a83610d19565b92508261148a57611489611435565b5b82820490509291505056fea264697066735822122033a5c81b7faec19f8750fa3b7e97bee125879a03de8e0937413848a7aed1cdfc64736f6c634300081b0033",
  "devdoc": {
    "kind": "dev",
    "methods": {},
    "version": 1
  },
  "userdoc": {
    "kind": "user",
    "methods": {},
    "version": 1
  },
  "storageLayout": {
    "storage": [
      {
        "astId": 53,
        "contract": "contracts/FundMe.sol:FundMe",
        "label": "fundersToAmount",
        "offset": 0,
        "slot": "0",
        "type": "t_mapping(t_address,t_uint256)"
      },
      {
        "astId": 56,
        "contract": "contracts/FundMe.sol:FundMe",
        "label": "dataFeed",
        "offset": 0,
        "slot": "1",
        "type": "t_contract(AggregatorV3Interface)45"
      },
      {
        "astId": 72,
        "contract": "contracts/FundMe.sol:FundMe",
        "label": "owner",
        "offset": 0,
        "slot": "2",
        "type": "t_address"
      },
      {
        "astId": 74,
        "contract": "contracts/FundMe.sol:FundMe",
        "label": "deploymentTimestamp",
        "offset": 0,
        "slot": "3",
        "type": "t_uint256"
      },
      {
        "astId": 76,
        "contract": "contracts/FundMe.sol:FundMe",
        "label": "lockTime",
        "offset": 0,
        "slot": "4",
        "type": "t_uint256"
      },
      {
        "astId": 78,
        "contract": "contracts/FundMe.sol:FundMe",
        "label": "erc20Addr",
        "offset": 0,
        "slot": "5",
        "type": "t_address"
      },
      {
        "astId": 81,
        "contract": "contracts/FundMe.sol:FundMe",
        "label": "getFundSuccess",
        "offset": 20,
        "slot": "5",
        "type": "t_bool"
      }
    ],
    "types": {
      "t_address": {
        "encoding": "inplace",
        "label": "address",
        "numberOfBytes": "20"
      },
      "t_bool": {
        "encoding": "inplace",
        "label": "bool",
        "numberOfBytes": "1"
      },
      "t_contract(AggregatorV3Interface)45": {
        "encoding": "inplace",
        "label": "contract AggregatorV3Interface",
        "numberOfBytes": "20"
      },
      "t_mapping(t_address,t_uint256)": {
        "encoding": "mapping",
        "key": "t_address",
        "label": "mapping(address => uint256)",
        "numberOfBytes": "32",
        "value": "t_uint256"
      },
      "t_uint256": {
        "encoding": "inplace",
        "label": "uint256",
        "numberOfBytes": "32"
      }
    }
  }
}